:020000040800F2
:10000000780C0020C5000008891D0008931C00081A
:1000100000000000000000000000000000000000E0
:10002000000000000000000000000000831E000827
:100030000000000000000000D11D0008851E00081F
:10004000D700000800000000D7000008D700000813
:10005000D7000008D7000008D7000008D700000824
:1000600000000000D7000008D7000008D7000008F3
:10007000D7000008D7000008D700000800000000E3
:10008000D70000080000000000000000D7000008B2
:1000900000000000D7000008D7000008D7000008C3
:1000A00000000000D700000800000000BD2200088A
:1000B0000348854600F0CEFB00480047AD300008FD
:1000C000780C00200448804704480047FEE7FEE71C
:1000D000FEE7FEE7FEE7FEE7E11E0008B1000008CC
:1000E00030B50B46014600202022012409E00D46D0
:1000F000D5409D4205D31D469540491B2546954058
:1001000040191546521E002DF1DC30BD70B500249B
:100110002546002801DA01244042002901DA0125A0
:100120004942FFF7DDFFAC4200D04042002C00D036
:10013000494270BD10B5202A04DB0846203AD04061
:10014000002110BD0B46D340D0402024A21A91407C
:100150000843194610BD03460B439B0703D009E033
:1001600008C9121F08C0042AFAD203E00B780370F2
:10017000401C491C521EF9D27047D2B201E00270F5
:10018000401C491EFBD270470022F6E710B513460B
:100190000A4604461946FFF7F0FF204610BD421CF0
:1001A0000178401C0029FBD1801A704730B5054604
:1001B0000020034600E05B1C934205D2EC5CC85C67
:1001C000201A01D1002CF6D130BD0000F0B5074651
:1001D0000846584087B0C00F049048000E465900AA
:1001E00040084908BC1A884105D2384631461E46A7
:1001F00017460B4602465800400810434CD0300DBD
:10020000039040055900400D490D0590401A029099
:10021000402872DA18030121000B090508430190F8
:1002200004980092002805D001995242002088418C
:1002300000920190029840210A1A0199009800F05A
:10024000D3F905460C466B4607CB00F0DDF9C01923
:100250007141039A0E0D0023D71756401A467A4073
:10026000164344D0049A002A2DD0029A012A039AF8
:1002700015DC1205C01A914101263605001C71419A
:10028000D20F059ED2070093019202962A4623467A
:1002900000F02DFA07B0F0BD38463146FAE71605F2
:1002A000224A0F46B218C01AB74101210905001CA5
:1002B0004F4100187F41114618187941E20F104351
:1002C0006D19644113E0E2076D0815436408C20725
:1002D0001443039A01261205C01A91413605001CE9
:1002E0007141CE07400830434908C01851412A46A1
:1002F000234600F0EFF9CDE7FFE704980122400024
:10030000C117121A00238B4104983146C417381ABA
:10031000A141EEE730B40124E407634030BC55E767
:1003200030B40124E407614030BC4FE70000E0FF37
:10033000F0B51FB488B00B9909980024484009997A
:10034000C00F490049080991C0070B990090490066
:1003500049080B9109990898A64608431CD00B99A7
:100360000A98084318D0099801244000420D48001B
:10037000410D099824050003000B204309900B98B8
:100380000003000B20430B9050181C49401800221A
:1003900001901446104605E0002001460DB0F0BD66
:1003A000032801DA034600E003239C46C11A0AAE83
:1003B0000AE05F0008ADED5B4F00F75B7D4300276F
:1003C000AA187C41491C5B1E6145F2DD410004AB6B
:1003D0005A522104120C0A43240C401C0828DFDB6B
:1003E000019802900099704601910090059B049A33
:1003F0000799069800F07BF9D0E700000DFCFFFF9D
:10040000F0B50C465C4085B0E40FE40703944C0063
:100410000026640859009446490802460296224381
:1004200021D062460A431ED06200570D4A000E03D7
:100430002303550D012402462C492405781B1B0B70
:10044000360B401823432643614600901C46501A41
:10045000B44103D30098401C009002E09218009829
:100460005B41002803DA0020014605B0F0BD002002
:10047000012109050746864611E064461D46141B06
:10048000B54106D36546521BB341744607430C433E
:10049000A646CD0740084908284392185B41054607
:1004A0000D43EAD11046184313D060461946504018
:1004B0007140084306D06046101AB34106D20122AB
:1004C000002306E000220123DB0702E00122D243E1
:1004D0005310009874460105381C6141029C039D2D
:1004E0000019694100F0F6F8BFE70000FD030000C5
:1004F0000EB5C217C10F5040CA0740180021054B66
:100500000293019200910A460B4600F0F0F803B006
:1005100000BD00003304000070B5CD0F4A00090390
:100520000123090B1B0519430B4BED070024520D4A
:100530009A4201DA002070BD074B34339A4203DC43
:100540009A1AFFF7F7FD02E00449511888402C433E
:10055000F1D0404270BD0000FF030000CDFBFFFF63
:1005600010B5002904DB0124E40740428C412146F8
:10057000002B04DB1C460123DB075242A3419942B6
:1005800000D1904210BD0000F0B51FB40646002017
:1005900082B005464024019100901BE0019922465B
:1005A0000F463046FFF7C6FD049A059B801A994115
:1005B00010D310461946224600F016F8361A8F411D
:1005C0000197224601200021009F00F00DF8381805
:1005D0004D4100902046641E0028DFDC019B0098FE
:1005E0002946324607B0F0BD10B5202A04DB01468B
:1005F000203A9140002010BD914020239C1A0346D0
:10060000E3401943904010BD10B5202A06DBCB17FC
:100610000846203A1041C1170B4306E00B46134130
:10062000D0402024A21A91400843194610BD000072
:100630000FB400B589B00CA900910B990023CB60D1
:10064000204B214A06930792042201921F4A0292EC
:100650001F4A089202466B46002000F090F909B04C
:1006600008BC04B0184770B586B006460020C043E9
:100670000190002015460C460091029104903246EC
:10068000694604A8FFF7D4FF034604982118002DFB
:1006900005D0002801D00A4600E022462A60002842
:1006A0000DD0002B02DD0098884208D0081B019075
:1006B000009432466946029404A8FFF7B9FF06B0D9
:1006C00070BD0000D50B0008F50B0008FFFFFF7F91
:1006D0007908000810B5002B08DA0024401C61419D
:1006E00092185B411A4301D14008400010BDF0B59B
:1006F0001FB482B005460C0003D0084601F0FAFD95
:1007000002E001F0F7FD2030024600902146284625
:10071000FFF76AFF049B059A04460F4618431143EE
:10072000084314D0184610431BD0009840210A1AE1
:1007300018460599FFF7FEFC05460E46009A0599F6
:100740000498FFF751FF084305D0012004E020463C
:10075000394607B0F0BD0020C11705430E432C43B6
:10076000374300990E986305401A7905E40A002280
:100770000C43FD0A0A3002D500200146E9E70105D5
:10078000101969410C9C0D9D00196941FFF7A2FFEA
:10079000DFE7F0B55F0085B07F0DCD0F03974E000A
:1007A00001273F051B0309031B0BED07090B3B4307
:1007B000760D394397189C46029700245B41039FAE
:1007C00001957F1E00949E46039713E0029F734697
:1007D000C01B994106D50127FF077D400F46002128
:1007E0004042B9416346171A8B41EFD3761E001879
:1007F000039F4941BE42F5DA02460A4307D0002270
:10080000134602960195FFF772FF05B0F0BD204632
:100810000199FAE74A0009030123090B1B05194353
:100820000A4B10B5520D9A4202DA0020014610BD63
:10083000064B34339A4203DC9A1AFFF77BFC10BD57
:10084000034BD218FFF7D0FE10BD0000FF030000DD
:10085000CDFBFFFF064C0125064E05E0E36807CC03
:100860002B430C3C98471034B442F7D3FFF724FCD9
:10087000283800084838000810B50F21C0B24902D6
:1008800000F008FA10BD0000FFB5087885B01546E5
:10089000FF2805D0491C2D2804D00022002407E0A1
:1008A00000240BE00122F9E70A235C430419491CE8
:1008B0000878FF28F8D1002A00D064420020019077
:1008C0002A7801462D2A01D02B2A04D16D1C2D2A0D
:1008D0000DD00022019200262F78FF2F09D00A2286
:1008E00000236D1C00F098F938187141F4E70122DB
:1008F000F0E7089AA218039202460A430DD000249A
:10090000B24AB14D2646009200F0D6F90490039801
:100910000291002807DA47421AE0002105980A46AA
:1009200006C009B0F0BD074612E0F80707D022461E
:100930002B4630460099FFF7FBFC06460091224605
:100940002B4610461946FFF7F3FC04460D467F1070
:10095000002FEAD10398009B0028029904983246A0
:1009600002DAFFF74DFD01E0FFF7E2FC019A002AF1
:1009700002D00122D2075140059A03C2D1E7FFB548
:1009800091B0002009900025ED432E209E685C6800
:100990001F460190B9696D1C129888470090396A0A
:1009A00088470028F6D10098401C0AD00D20C001CD
:1009B0008443002E12DD00982B2809D02D280DD15C
:1009C00003E00020C04315B0F0BD012080020443C5
:1009D000B9696D1C12988847761E009003A96005BE
:1009E00001D52D2000E02B206A461073491C0CA86D
:1009F0000F9102900AE0B9696D1C12988847009027
:100A00000120400204431398761E0560002E02DD8B
:100A100000983028EFD001990098884246D1802074
:100A2000044308E00998401E099001204002044355
:100A30001399681C0860B9696D1C761E1298884766
:100A400000903028EED031E00199884205D120068F
:100A500003D480200443761E1EE0009801F038FD88
:100A6000002826D001204002044307A90F98033133
:100A7000761E88420BD200980F99303808700F9874
:100A8000401C0F90200607D50998401E03E0200661
:100A900002D40998401C0990A00502D51399681C3E
:100AA0000860B9696D1C129888470090002ECBDC55
:100AB00059E0002E57DD0098652801D0452852D115
:100AC000A00550D5032000028443B9696D1C761E31
:100AD000129888470090002E0CDD2B2804D02D287A
:100AE00008D1FF2001300443B9696D1C1298884772
:100AF000761E0090E00501D52D2100E02B21029803
:100B000001700298401C0290019025E001204002F3
:100B100004430EA902980131761E88420ED2009835
:100B2000029930380006000E087003D1029901982E
:100B300081420AD90298401C029006E0E00501D5E6
:100B4000234801E0224840420990B9696D1C12987F
:100B50008847009013980560002E04DD009801F08E
:100B6000B7FC0028D2D1F969129888470F99FF2065
:100B70000870029903AA087000200A900B900CA933
:100B80000AA8099BFFF780FEA00502D40120C043FC
:100B900019E72420044209D0E00713D138680B9AE2
:100BA0000A99031D3B60006806C00BE00B990A9888
:100BB00000F090F80146E00704D13868021D3A6061
:100BC000006801602846FEE6000024400000F03F77
:100BD000F1D8FFFF4268002A08D001680B78491C51
:100BE000002B03D0521E06C0184670470121C16079
:100BF000881E70474268002A0BD0C3680168002B2A
:100C000007D183688B4204D0491E521C06C00020C5
:100C100070470020C0437047F0B51FB486B0002075
:100C20000090019002900698069980B2049007986F
:100C3000090C02040014114307900027089D09982D
:100C400006913E463C4603900398A9B20204000C6C
:100C5000039004982D0C1543484300212246FFF7CA
:100C6000C3FCC719714110340E46402CECDB3846EA
:100C7000029AFFF7B9FC009A019B80180090594135
:100C800002980191103002904028CCDB00980BB004
:100C9000F0BD00007F2801D9002207E0054B420883
:100CA0009A5CC00700D112091207120F0120904070
:100CB00008407047DC3700080EB5054A0292002252
:100CC000009213460192FFF712FD03B000BD000031
:100CD00033040000CB0FDB07490010B5490802467A
:100CE0000A4307D00A0D07240903E401090B121B6C
:100CF000002A01DC002010BDC900440F0C43C100D4
:100D0000E018D205801800F001F810BD002904DABF
:100D1000401C490001D140084000704770B40024D5
:100D2000050C05D11024000402D1002921D0112482
:100D3000050E01D100020834050F01D10001241D68
:100D4000850F01D18000A41C002801DB4000641C39
:100D5000002908D020252E1B0D46F540A14000D0CB
:100D600001212943084301061B1B000ADB1D02D594
:100D7000002070BC7047DB05181880180029F8DACD
:100D8000401C4900F5D170BC40084000704770B568
:100D90008C180578401C6B075B0F01D10378401C51
:100DA0002A1106D10278401C03E006780E70401C20
:100DB000491C5B1EF9D12B0705D40023521E0DD40C
:100DC0000B70491CFAE70378401CCB1A921C03E015
:100DD0001D780D70491C5B1C521EF9D5A142D8D359
:100DE000002070BD10B50446084800F05FFD0849BA
:100DF000002C04D0012040020880400002E00420C2
:100E000008800820488000F0A3FF10BD04080020DF
:100E1000A4010020704770B50024014620314A78B3
:100E2000022A03D004218163012416E002681368BA
:100E30000E25AB431360026813685B085B00136008
:100E40000122056C1346AB40C56B6B604A700022F3
:100E50000A70416B002900D08847204670BD31B52B
:100E600000F020F9009C0546601C00D0641C00F0D6
:100E700019F9401BA042FAD338BD0000F0B5002399
:100E800058E001229A4014460A4052D006685F009A
:100E90000325BD40AE43AC460660DD08AD002D180D
:100EA0002E6AAE465D07EF0E0F25BD40AE43754678
:100EB0002E6286686546AE4386604568A5434560F8
:100EC000C4686546AC43C4609D081C4CAD002D1938
:100ED000AF689C07260F0F24B440A4463C40092766
:100EE000FF06B84201D100270FE0154FB84201D1EB
:100EF00001270AE0134FB84201D1022705E0124F43
:100F0000B84201D1032700E00527B740A74210D11E
:100F1000AE686446A643AE600C4C256895432560D8
:100F2000656895436560A5689543A560E568954348
:100F3000E5605B1C0A46DA40A3D1F0BD0000014029
:100F40000004004800080048000C0048000401406C
:100F5000F8B500238DE001249C40A44622407DD0BA
:100F60004C68022C01D0122C0CD1DC08A4002718EC
:100F70003C6A5D07ED0E0F26AE40B4430E69AE40ED
:100F800026433E6205685E000324B4400F79A54302
:100F9000BF07BF0FB7402F4307604D68012D05D035
:100FA000022D03D0112D01D0122D0ED18568CF68EE
:100FB000A543B7402F43876047686546AF430D7927
:100FC000ED06ED0F9D403D434560C568A5438C6827
:100FD000B4402C43C4604C68E40049D5284CA56952
:100FE00001263543A561A4699D0834400094254C31
:100FF000AD002F19BC689D072E0F0F25B540AC43DF
:101000000925ED06A84201D100250FE01E4DA8429A
:1010100001D101250AE01D4DA84201D1022505E0BC
:101020001B4DA84201D1032500E00525B54025430D
:10103000BD60184C25684E689543F60300D51543EE
:10104000256065684E689543B60300D51543656015
:10105000A5684E689543F60202D500E008E0154306
:10106000A560E5684E689543B60200D51543E56076
:101070005B1C0A681446DC4000D06CE7F8BD000039
:101080000010024000000140000400480008004831
:10109000000C004800040140002A01D08161704723
:1010A000816270470148006870470000A801002075
:1010B00002480168491C016070470000A801002037
:1010C00010B506480168102211430160002000F0AD
:1010D00007F800F017F8002010BD000000200240C3
:1010E00010B5044600F044F97D21C900FEF7F8FF71
:1010F00000F0C4FB00222146501E00F02BF8002017
:1011000010BD000008B508488169012211438161C2
:10111000816911400091C26901040A43C261C0693A
:101120000840009008BD000000100240C106C90E32
:1011300001208840014908607047000080E100E01C
:10114000C106C90E012088400149086070470000AF
:1011500000E100E010B500F019FE10BDF8B505463D
:101160000068354CC00352D5E0690026C00007D4A2
:10117000E16920040143E161E16901400126009138
:101180002E480168C90510D4016882151143016019
:10119000FFF788FF074604E0FFF784FFC01B6428C1
:1011A00024D826480068C005F6D5206A03273F02E8
:1011B000384020D06968394081421CD0206A226AB8
:1011C000B843012109040A432262226A8A43226247
:1011D0002062C0070FD0FFF765FF009008E0FFF71F
:1011E00061FF0099411A1648814201D90320F8BDD8
:1011F000206A8007F3D5206A6968B84308432062F3
:10120000002E04D0E169012000078143E1612878C4
:10121000C00705D0206BA9688008800008432063C0
:101220002878800605D5206B10218843E96808439B
:1012300020630020F8BD0000001002400070004054
:1012400088130000F8B5054644480E460068C007FC
:10125000C00FB0420AD241480168490849003143F1
:1012600001600068C007C00FB0425CD128783C4CD8
:10127000800705D56068F0218843A968084360604D
:101280002878C0073FD06868012813D02168022859
:1012900013D08907002946DA61688908890001436B
:1012A0006160FFF7FFFE6968074601290DD002293A
:1012B00017D024E021688903ECE78901EAE7FFF70A
:1012C000F1FEC11B2748814217D860680007800FD4
:1012D0000128F4D117E0FFF7E5FEC11B2148814248
:1012E0000BD860680007800F0228F4D10BE0FFF7ED
:1012F000D9FEC11B1B48814201D90320F8BD60689B
:101300000007800FF3D115480168C907C90FB14222
:101310000BD9016849084900314301600068C007E2
:10132000C00FB04201D00120F8BD2878400706D593
:101330006068072109028843E9680843606000F09B
:101340002DF86168084A0906090F515CC840074931
:1013500008600020FFF7C4FE0020F8BD0020024016
:101360000010024088130000C4370008AC010020C0
:101370000148006870470000AC010020044805499E
:1013800000684968044A4905490F515CC8407047E4
:10139000AC01002000100240D437000810B512A3A1
:1013A0000FCB88B06C460FC413A30FCB0FC41649E4
:1013B0004A680C20134603401448042B0FD0082B16
:1013C0000DD193021B0F6C46E45CC96A04AB09079C
:1013D000090F595CD20304D5FEF782FE604308B0C2
:1013E00010BD0B486043FAE702030405060708092D
:1013F0000A0B0C0D0E0F101001020304050607085E
:10140000090A0B0C0D0E0F100010024000127A009A
:1014100000093D00FEB504460078D04DC00747D016
:1014200068680007800F012807D068680007800FF0
:10143000022809D16868C00306D52868800337D51B
:10144000606800287ED033E0012062680004012A31
:1014500011D08100002A01D0052A10D02A688243C9
:101460002A602868884328606068002814D0FFF745
:1014700019FE06460CE0296801432960F4E72A6852
:101480000A432A60F7E7FFF70DFE801B64286FD838
:1014900028688003F7D50BE0FFF704FE064604E05A
:1014A000FFF700FE801B6428F1D828688003F7D47A
:1014B00020780126800700283BDA68680007800F43
:1014C00007D068680007800F022809D16868C00348
:1014D00006D42868800715D5E068012832D111E0CC
:1014E000E0680028286815D030432860FFF7DAFD4F
:1014F000074604E0FFF7D6FDC01B0228C7D82868BE
:101500008007F7D52868F82188432169C900084376
:1015100028600EE0400840002860FFF7C3FD074642
:1015200004E0FFF7BFFDC01B0228B0D82868800781
:10153000F7D42078000724D5E0690028686A10D025
:10154000304300E008E16862FFF7ACFD074604E0C5
:10155000FFF7A8FDC01B022899D8686A8007F7D555
:101560000FE0400840006862FFF79CFD074605E079
:101570009DE0FFF797FDC01B022888D8686A8007A6
:10158000F7D4207804274007002860DA0020019073
:10159000E869C00008D4E969B8060143E961E9696E
:1015A00001400120009101906D480168C90511D4E6
:1015B0000168821511430160FFF774FD009005E09A
:1015C000FFF770FD0099401A642870D864480068DD
:1015D000C005F5D5A06801280AD0002801D005284B
:1015E00010D0286A400840002862286AB84301E009
:1015F000286A30432862A068002812D0FFF752FD05
:1016000000900AE0286A38432862F1E7FFF74AFDB4
:101610000099411A5348814249D8286A8007F5D574
:101620000DE0FFF73FFD009006E0FFF73BFD00995E
:10163000411A4C4881423AD8286A8007F5D401986B
:10164000002804D0E969012000078143E96120787E
:10165000C00635D5606901280CD0401D686B23D0C9
:1016600038436863686B400840006863FFF71AFD01
:10167000064622E0686B38436863686B30436863F2
:10168000FFF710FD064604E0FFF70CFD801B022863
:101690005BD8686B8007F7D5686BF8218843A16930
:1016A000C900084368630BE0B8436863F4E74CE0A3
:1016B000FFF7F8FC801B022847D8686B8007F7D437
:1016C000206A002846D069680907890F022943D09B
:1016D000012636060228286805D0B0432860FFF7A7
:1016E000E1FC044633E0B0432860FFF7DBFC07462B
:1016F00004E0FFF7D7FCC01B022826D82868800129
:10170000F7D4E86AE16A000900010843E862616A07
:10171000A06A084369683D22120491430843686047
:10172000286830432860FFF7BDFC044604E0FFF75B
:10173000B9FC001B022808D828688001F7D509E009
:10174000FFF7B0FC001B022801D90320FEBD28686A
:101750008001F5D40020FEBD0120FEBD0010024036
:101760000070004088130000F8B5040007D0002680
:1017700025464035A662687F002802D005E001209A
:10178000F8BD2E77204600F04BF802236B772068D7
:1017900001684022914301600721E0680902884204
:1017A00001D9002201E0012212030F273F02B842B3
:1017B00002D0884200D0A662276B002F05D1884254
:1017C00001D9236301E001202063A1686068636997
:1017D00008432169194308430123A1695B021940A9
:1017E0000843E1690843216A0843A16A0843216864
:1017F0000860616B606AA36908431B0C0427E168F9
:101800003B40194308432168104348602068C16980
:101810007A029143C1612666012068770020F8BDF5
:1018200010B586B0044614216846FEF7ADFC114998
:10183000206888421CD11048826981140A43826161
:1018400082690A400592426949010A43426140693E
:1018500008400590E0200090022001900021032024
:1018600003900291049109206946C006FFF770FBBE
:1018700006B010BD0030014000100240094910B50B
:10188000401E884201D9012010BD074C6061032130
:10189000081F00F07BFA0020A061072020610020D3
:1018A00010BD0000FFFFFF0000E000E070B5040085
:1018B00019D0242120466030064641722068016814
:1018C00049084900016020680025056020684560DE
:1018D00020688560204600F0C9F8E5667572B5722B
:1018E0003572002070BD012070BD7047F8B50368E7
:1018F0000446D96918680D072D0F07D18A0605D54A
:10190000820603D5204600F0ADFBF8BD9A68002D95
:1019100064D0D507ED0FFF26213606402E435DD05B
:10192000CE0706D0C60504D501261E62E36E3343FA
:10193000E3668F0702230426002F06DAD70704D0B8
:1019400027683B62E76E3743E7664F0706D5D20745
:1019500004D022681662E26E1A43E2660A0709D5CD
:10196000202202402A4305D0236808221A62E36E2F
:101970001343E366E26E002AC7D0890604D58006C9
:1019800002D5204600F06EFBE06E000703D420680D
:10199000806840061CD5204600F048FB206881681E
:1019A000490611D58168402291438160606E00280C
:1019B0000AD012494163606EFFF72DFA0028A4D0C7
:1019C000606E416B8847F8BD2046FFF78EFFF8BD7B
:1019D0002046FFF78AFF0020E066F8BD0A0605D51D
:1019E000020603D5204600F005FCF8BD4906FCD5EB
:1019F0004006FAD5204600F028FBF8BD1920000863
:101A000070B5040005D025466035687A002802D0FC
:101A100006E0012070BD00202872204600F044F846
:101A20002420687220680168490849000160204646
:101A300000F056FB0128EDD0606A002802D0204655
:101A400000F07CFA206841680122D2029143416093
:101A50002068816808229143816020680168012222
:101A600011430160204600F0CEFA70BD10B5006849
:101A70000A49884210D10A488169012292039143A0
:101A8000816108480188408801430920C006FFF7AA
:101A9000F5F91B20FFF74AFB10BD0000003801409C
:101AA00000100240A401002010B586B004461421A5
:101AB0006846FEF769FB18492068884229D1174813
:101AC0008269012189030A43826182690A40059281
:101AD0004269C9000A4342614069084005901048C4
:101AE00001884088014302200190002002900320D9
:101AF000039001200490009109206946C006FFF779
:101B000027FA002211461B20FFF724FB1B20FFF7BA
:101B100017FB06B010BD0000003801400010024065
:101B2000A401002070B5034660339C7A202C39D183
:101B300000290BD0002A09D0012584682D03AC426E
:101B400006D10669002E03D1CE0701D0012070BD59
:101B50001E7A012E26D001261E72416501464031B3
:101B60000A834A83FF22AC4204D10469002C07D1C6
:101B70000D4A05E0002C04D10469002C00D07F221E
:101B80008A830021C16622229A72197201688A68CA
:101B900032438A6000680168FF22213211430160EC
:101BA000002070BD022070BDFF01000070470000E2
:101BB000FFB50D46044683B033A1002000F052F972
:101BC0002946002000F04EF926466036707A20281B
:101BD00058D1002D0CD00598002809D00120A1680B
:101BE0000003814207D12069002804D1E80702D010
:101BF000012007B0F0BD307A012843D001203072B7
:101C00000020E06621207072FFF74CFA0190274611
:101C10004037059838820598788218E0788A401E07
:101C2000788206980090002280212046019B00F0D7
:101C300014FB002818D10120A1680003814202D1C1
:101C40002069002812D02168287808856D1C788AC0
:101C50000028E3D106980090002240212046019BF5
:101C600000F0FBFA002808D00320C2E7288821688A
:101C7000C005C00D0885AD1CE9E72020707200206A
:101C80003072B6E70220B4E70A73656E643A00006A
:101C90007047FEE770B586B014216846FEF774FA07
:101CA00016484269012149040A43426140690926F4
:101CB0000840F6060590002210213046FFF7ECF9A7
:101CC0000F48012500240190694600950294304692
:101CD000FFF73EF9022000900194694602943046D5
:101CE000FFF736F91020009002946946019503949D
:101CF0003046FFF72DF906B070BD0000001002401D
:101D00000000111010B511480F490160FF21053185
:101D1000416000210322816012020161C2604161C1
:101D2000C161012201625202416282618162072225
:101D3000C262016308214163FFF716FD002801D04C
:101D4000FFF768F810BD000000300140A007002038
:101D500010B50C480A490160E121490241600021A7
:101D60008160C16001618161C1610C2201624261D7
:101D70004162FFF745FE002801D0FFF74BF810BD88
:101D80000038014004080020704700008307FF224C
:101D9000DB0E9A408907090E994000280BDA0007EC
:101DA000000F0838830808489B001818C36993433C
:101DB0000B43C3617047830804489B001B181868D5
:101DC000904308431860704700ED00E000E400E035
:101DD00070470000F7B518214843214916464418BA
:101DE000E16A8807800F02280BD0A06A626A801A15
:101DF000401E01D5226A1018864202DD89072DD0C7
:101E00000646002E2AD00027A06A616A451A6D1E78
:101E100001D5206A4519616A206A411AA94201DC8C
:101E2000616A451AB54200DB3546616AE0692A46B7
:101E300040180199FEF78FF901987F194019019018
:101E4000606A761B40196062606A216A884201D12B
:101E500000206062002ED7D13846FEBD0020FEBDB6
:101E60000400002010B500220B46002900D105E037
:101E70001C78002C02D0521C5B1CF9E7FFF7AAFF6C
:101E800010BD704710B5FFF713F910BD30B595B010
:101E900030216846FEF778F900240F9402200D9453
:101EA0000E94009012940125139410200C94039525
:101EB00004901094119408946846FFF7ABFA072039
:101EC0000C900D940E9400210F940CA8FFF7BAF912
:101ED00010A810951294FFF741F915B030BD00001D
:101EE000134801680122114301604168114A114001
:101EF00041600168104A11400160016801229204AA
:101F00009143016041683F22120491434160C16ADC
:101F100009090901C162016BFF2214329143016377
:101F2000416B49084900416300218160704700000E
:101F3000001002400CB8FF08FFFFF6FE10B5818CC0
:101F4000C90707D001684A6801235B049A43836A82
:101F50001A434A60818C890707D501684A680123C2
:101F60001B049A43C36A1A434A60818C490707D508
:101F700001684A6801239B049A43036B1A434A6031
:101F8000818C090707D501684A680123DB039A435E
:101F9000436B1A434A60818CC90607D50268916871
:101FA00001231B039943836B19439160818C89063C
:101FB00007D501688A6801235B039A43C36B1A4300
:101FC0008A60818C490612D503685A680121090587
:101FD000046C8A4322435A60026C8A4207D1026829
:101FE000516803235B059943436C19435160818C0D
:101FF000090607D501684A680123DB04806C9A430F
:1020000002434A6010BD0021C16620226030427246
:10201000827201720846704710B5406A002201467C
:1020200040314A834A82FFF760FC10BD01680A68AC
:10203000FF2321339A430A6001688A6852085200DC
:102040008A60202160308172704710B501680A688B
:1020500040239A430A60202269210A54FFF718FEA0
:10206000002010BD70B50246403203466033948BA9
:102070009D7A0168222D05D0886908221043886165
:10208000022070BD898C012685683603B54202D1D5
:102090000569002D0BD02140446D651C45652170FC
:1020A000518B491E0904090C518307D015E0456D79
:1020B00021402980416D891C4165F1E701680A686A
:1020C000FF242134A2430A6001688A685208520042
:1020D0008A6020219972FFF769FD002070BD000021
:1020E000F8B504462369A268E6691A4363691021BA
:1020F0003343002026681A4333680546394F3B4076
:102100001343336023685A6803263603B243E668F4
:1021100032435A60236AA26926681A43B3680B27C0
:102120003F02BB431343B3602F4A126B9207920FD7
:1021300006D0012A08D0022A08D0032A07D101E0DC
:10214000002104E0022102E0042100E00821012234
:10215000E369D203934224D100290CD002290DD087
:10216000042913D0082917D0012501090901000706
:10217000400F084332E0FFF701F909E061681B4AAC
:1021800048088018FDF7ACFF80B2EEE7FFF706F9CC
:10219000616840004A08F4E76168012248081204B7
:1021A000EFE7002908D0022909D004290BD008291B
:1021B0000ED001252846F8BDFFF7E0F805E061687C
:1021C0000B4A480806E0FFF7E9F861684A0801E0B1
:1021D000616848088018FDF783FF80B22168C860F5
:1021E000E8E70000F369FFFF001002400024F4005C
:1021F00000127A006921095C212901D00220704770
:1022000002464032518A002912D0012381681B0303
:10221000994202D10169002915D0C16C4B1CC364DD
:10222000006809780185508A401E5082002070475E
:1022300001680A6880239A430A60006801684022A6
:1022400011430160F2E7C16C03680988C905C90D33
:102250001985C16C891CC164E5E7FFB581B01746DB
:102260000E4604460A9D1DE0681C1BD0002D05D0BB
:10227000FEF718FF0499401AA84213D92068016894
:10228000FF22A1329143016020688168490849001A
:102290008160202060346072A072002020720320D0
:1022A00005B0F0BD2068C1693046884304D00020E5
:1022B000B842D9D00020F3E70120F9E710B5024871
:1022C000FFF714FB10BD0000040800200FB410B588
:1022D00004A9074B02AA039800F002F9044602A9D8
:1022E000002000F099FC204610BC08BC04B0184740
:1022F000192C00082021020C01D010211046020ADE
:1023000001D010460839020901D01046091F820881
:1023100001D01046891E420801D0881E7047081A55
:10232000704730B47446641E2578641CAB4200D2FA
:102330001D46635D5B00E31830BC1847002210B5F2
:10234000134610461146FEF75BF810BD02E008C8C0
:10235000121F08C1002AFAD170477047002001E01F
:1023600001C1121F002AFBD170470000014908601B
:1023700070470000B0010020F0B51FB484B007988A
:102380000699020D014314D04A484B49101848439E
:1023900005140F9801280E981CD0281A401C002400
:1023A000464E4749009401910290002814DA4742B2
:1023B00027E00F98012443A3012808D000210498A6
:1023C0000F9A84600360C260416009B0F0BD0E984E
:1023D000C143F4E74042E2E7074612E0F80707D0BE
:1023E0002246334601990098FDF7A2FF0191009023
:1023F0002246334610461946FDF79AFF04460E461C
:102400007F10002FEAD10298019B0028009A0799BB
:10241000069802DAFDF78CFF01E0FDF7F1FF0446B4
:102420000E460022284BFEF79BF803D80020C0433D
:10243000014607E00022254B20463146FDF7C6FE47
:10244000FEF7E8F9102409E0002C0ADB0A22002339
:10245000FEF79AF8059B30321A55641E02460A436D
:10246000F2D11122641C059B121B1C190F9B012B1E
:1024700003D0012308430ED10AE0084304D0112001
:102480000E9000200F9084E70E98151A6D1E0BE039
:102490000E98824202DD00236D1C03E0824201DAC5
:1024A00000236D1E002BEED004980F998260C1604E
:1024B00030C08AE701FCFFFF104D000000002440FF
:1024C0000000F03F300000000000F0430000E03F5B
:1024D00030380A2801D201207047002070470000E0
:1024E000FFB597B00646002518E2252877D10024CD
:1024F0002746FD49049400E00443761C327801200D
:10250000203A90400842F7D130782A280ED0022293
:10251000307801463039092916D804990A235943DD
:10252000303940181443761C0490F1E7189802C81B
:1025300004911890002904DA012040030443484222
:10254000049002200443761C30782E2814D10420F5
:1025500004437078761C2A2809D11898761C80C804
:10256000189009E00A214F43303FC719761C307894
:10257000014630390929F5D930786C2810D006DCAD
:102580004C281AD068280ED06A2817D104E0742885
:1025900013D07A2812D110E00120400504430CE04A
:1025A0000121090501E0032109050C4371788142ED
:1025B00003D1012000052418761C761C3078119078
:1025C00066280BD013DC58287DD009DC00287BD08E
:1025D0004528F6D04628F4D047281AD1A5E118E0BE
:1025E000632835D0642870D0652812D19DE1702809
:1025F0006CD008DC6728F1D069287BD06E280DD01C
:102600006F2806D1BAE073282ED0752871D07828AB
:1026100059D01A9A199990476D1C7EE16002400FBB
:10262000022809D003280DD00428189801680DD07D
:102630000D60001D189070E11898EA1701680D6090
:102640004A60F6E7189801680D80F2E70D70F0E730
:1026500018986A4601781172001D18900020507277
:1026600002A80090012005E0189802C818900020E8
:102670000091C04361070DD5002101E00199491C7B
:102680000191B94212DA8142F8DB009A515C0029CB
:10269000F4D10BE0002101E00199491C0191814234
:1026A000FADB019A0099895C0029F5D10199049817
:1026B0001A9B471A21463846199A00F097FA019951
:1026C000401945180BE04FE02CE113E04EE0009874
:1026D00000990078491C00911A9A1999904701981D
:1026E000401E0190401CF2D1214638461A9B199A8F
:1026F00010E137E00A200021009001916002410FB3
:10270000022907D0189A01CA1892C21794460329C1
:1027100008D00AE01898C01DC108C90005C9189161
:10272000944607E000B2C2179446042902D140B291
:10273000C1178C4600226146944506DA0A460021FC
:10274000404291418C462D2102E0210504D52B21E8
:102750006A461173012103E0E10701D02021F7E768
:10276000029155E00A200AE0102008E010200090B5
:102770000021042004430191082703E008200021E0
:10278000019100906002410F022907D0189A01CAF6
:10279000189200229446032908D008E01898C01D1A
:1027A000C108C90005C91891944603E080B2042904
:1027B00000D1C0B200210291210729D511997029B9
:1027C00006D0009A1021019B4A401A4305D00EE022
:1027D00040216A461173012108E06146014306D099
:1027E00030216A4611731199517302210291009AA6
:1027F0000821019B4A401A430AD16146014301D195
:10280000610705D530216A46117301217F1E0291AF
:102810001199582904D035A10E910DA90D910DE003
:1028200037A1F9E76146019B009AFDF7ADFE0E9BCB
:102830008C469B5C0D9A521E0D92137061460143AB
:10284000F0D10D9805A9081A20300190600703D532
:1028500001200004844300E001270198874201DD44
:10286000381A00E0002001990090411802980918D8
:102870000498401A0490E00306D421461A9B199A42
:10288000049800F0B3F94519002706E003A81A9A46
:10289000C05D199990476D1C7F1C02988742F5DB3B
:1028A000E0030CD521461A9B199A049800F09EF972
:1028B000451904E01A9A3020199990476D1C009927
:1028C000481E00900029F5DC08E00D980D9900786D
:1028D000491C0D911A9A199990476D1C0199481E2F
:1028E00001900029F1DC63E1092801003031323325
:1028F000343536373839616263646566000000003C
:102900003031323334353637383941424344454625
:102910000000000000F05AF94519761C30780028B4
:1029200000D0E2E528461BB0F0BD600700D40627C2
:102930001898C01DC108C90048680A680831C30F4B
:10294000DB071891190001D09CA108E0210501D5F1
:102950009BA104E0E10701D09AA100E09AA1430005
:1029600011985B08109165280CD006DC452809D029
:1029700046281DD0472841D141E0662818D0672855
:102980003CD13CE00021112F01DB112000E0781C3C
:102990000191009008A911A8FFF7EEFC1399059189
:1029A0000021119A15927F1C12980197009150E016
:1029B0000120C00703900120019008A9009711A8E9
:1029C000FFF7DAFC139A149905920022119B0092EA
:1029D00012981593059A0192002901D0104602E041
:1029E000791C40180190381A01D5019804E0404242
:1029F000401E0090781C0190C01B029043E0012F04
:102A000000DA01270021112F01DD112000E03846F6
:102A10000191009008A911A8FFF7AEFC1399059148
:102A2000119A0021129815920091019721070CD458
:102A30000599B94201DB019900E00191012904DD0A
:102A4000159A491E515C302906D0B84201DA011DA1
:102A500005DA0121029115E00199491EEDE70028F0
:102A600005DC0099411800910199091A03E0019AC7
:102A7000411C914200DD01910099401A401C0290D6
:102A80000120C0070390200706D4029901988142D3
:102A900002DB0020C043029000206946C87707AFE0
:102AA000012103980337C907884224D002201190DE
:102AB0002B201290039800280CDA404203902D201E
:102AC000129007E00A210398FDF70AFB30317F1EC0
:102AD000039039701199481E11900029F2DC039877
:102AE0000028EFD1791E1298087030782021084014
:102AF0004530BF1E387006A8C01BC01D039010983B
:102B00000078002800D00120019941180298C017D0
:102B10000918039809180498401A401E0490E0030D
:102B200006D421461A9B199A049800F05FF84519BB
:102B300010980078002803D01A9A199990476D1CB4
:102B4000E00324D521461A9B199A049800F04EF808
:102B500045191CE00098002807DB00990598884279
:102B600003DD1598405C199901E0199930201A9AF3
:102B7000904700986D1C401C00900298401E0290E7
:102B8000002804D11A9A2E20199990476D1C01999A
:102B9000481E01900029DDDC05E038781A9A7F1C78
:102BA000199990476D1C0399481E03900029F4DC85
:102BB00021461A9B199A0498ACE600002D000000EB
:102BC0002B0000002000000000000000F8B50446C3
:102BD00000251E461746880404D405E03946202007
:102BE000B0476D1C641EF9D52846F8BDFFB50446F4
:102BF000002581B01E46C80301D5302700E02027FC
:102C0000880404D505E038460399B0476D1C641E5E
:102C1000F9D5284605B0F0BD0A68531C0B6010704A
:102C200070476030417A0A46303A092A0BD9313A66
:102C3000192A01D80A3206E00A46413A192A01D86F
:102C40000A3200E0002211070A0E817A0B46303B5F
:102C5000092B01D819460CE00B46613B192B01D812
:102C6000573906E00B46413B192B01D8373900E0B4
:102C700000210907090F407E0A43904201D101203B
:102C80007047002070470000F8B50924FF26102582
:102C9000E406F53677000EE0284360613046FEF723
:102CA000DEF808A10020FFF7DDF86069A843606145
:102CB0003846FEF7D4F8206980076069ECD52843D0
:102CC0006061F8BD2E00000070B502466032137AD4
:102CD00001468031012B08D0022B1BD00446403422
:102CE000032B2CD0042B2DD040E00CC90CC04B681A
:102CF0000A6843600260CB688A68C36082600A7CAD
:102D000002744A7C42748A7C8274CA7CC274097DD3
:102D100001752BE00CC943620262CB688A68436389
:102D200002634B680A68C36282620A7C38210A54D3
:102D300001460C2299313930FDF70DFA16E008787A
:102D4000607113E04D690B69456503650B78A371EC
:102D5000CC688B68C4648364CC698B69C465836503
:102D60004878107088785070C8789070012070BDD5
:102D7000F3B583B00027049D044601972078297895
:102D800088421DD10026009409E000982978007837
:102D9000884209D100986D1C401C761C0090049854
:102DA000FDF7FDF9B042F0D8049D2846FDF7F7F98C
:102DB000B04205D10120019009A10020FFF752F88F
:102DC000641C7F1C642FD9DB0198002802D00120ED
:102DD00005B0F0BD04A10020FFF744F80020F7E79C
:102DE0000A666F756E640A00200A4E4F5420666FA3
:102DF000756E640A0000000070B514461D460E464C
:102E0000002801D0012100E0002131434A001E4981
:102E100052088A1AD20F15D1002C01D0012200E0ED
:102E200000222A4352005208891AC90F0AD10122EE
:102E300071005205D14201D100281FD0690001D193
:102E4000002C1BD022463146FDF7A3FC0246080D9C
:102E5000C043400510D0F00FCB0FC007DB079842EE
:102E60000AD06D00CB0F6D08DB071D430B462046D3
:102E70002946FDF755FA0246104670BD0120FFF7BE
:102E800075FAFFF75BFA70BD0000F07F10B5A8215E
:102E9000FDF77AF9012010BDF8B5064669303446D1
:102EA00017460D46603400904CE02878242809D05D
:102EB0002C281AD02A2820D00D282AD0217E00299B
:102EC00030D032E0304640216830FDF75DF9A07D1A
:102ED0000C2836D203462A78401C0099A0755A5413
:102EE000A27D0098002111542BE0304600F016FA24
:102EF000607E29784840607604E0304600F00EFAA3
:102F0000012020760020A0756072E07D401CE075F5
:102F100017E03046FFF785FE002812D03046FFF755
:102F2000D3FE0EE0617E41406176A07D0C2808D280
:102F30002A78431C0099A3754254A27D0099002071
:102F400050546D1C7F1EB0D20120F8BD10B500207A
:102F5000FDF748FFFFF798FE1EA000F06BFB23A0D3
:102F600000F068FB24A000F065FB26A000F062FBE7
:102F700026A000F05FFB28A000F05CFB29A000F079
:102F800059FB2BA000F056FB2DA000F053FB34A002
:102F900000F050FB35A000F04DFB374800F04AFB35
:102FA000354936A000F000FB002812D135A000F012
:102FB00041FB36A000F03EFB38A000F03BFB2E4862
:102FC000DE38406881004018FDF749FF18A000F086
:102FD00031FB10BD41542B434F50533D342C322C08
:102FE000223433323335220D0A00000041542B4382
:102FF00050494E3F0D0A000041542B4353510D0AD6
:1030000000000000415445300D0A000041542B439C
:103010005245473F0D0A000041542B43474143545A
:103020003F0D0A0041542B434D45453D310D0A00EB
:1030300041542B43474154543D310D0A00000000D8
:1030400041542B435354543D226D746E6972616E2A
:1030500063656C6C222C22222C22220D0A000000B7
:1030600041542B43494943520D0A000041542B431C
:10307000494653520D0A00005E010020434F4E4E58
:103080004543540041542646300D0A0041542B4319
:103090004950434C4F53450D0A00000041542B4307
:1030A000474154543D300D0A0000000086B0FEF741
:1030B00007F8FEF7EBFEFEF7EDFDFEF723FEFEF749
:1030C00047FE4548FFF7E2FE44A10020FEF7CAFE96
:1030D0000020414A0146CC3A1154401C6428FBDBD5
:1030E0007D204001FDF7BBFEFFF7CEFDFFF72EFF71
:1030F0003C4C394800F0A6F8374AD1689068E16046
:1031000005460E46A06003CA61612061284631462B
:10311000FDF702FA6421FCF7F9FF07460022324B63
:1031200028463146FFF768FE0022304BFDF768F96C
:1031300005460E463846FDF7DBF92A463346FDF7CD
:1031400045F8E160A0602069616905460E46FDF71B
:10315000E3F96421FCF7DAFF07460022224B2846F8
:103160003146FFF749FE0022204BFDF749F905469D
:103170000E463846FDF7BCF92A463346FDF726F8D9
:103180000022616113462061FDF7EAF9124810D26E
:10319000027FC17E807E02AB07C361692069009017
:1031A0000191104812A17A30E368A268FFF78EF807
:1031B00008E0017F0091C37E827E0A4817A17A3021
:1031C000FFF784F8074900207A31FEF74BFE0548E7
:1031D0007A3000F04FFA8CE7F80600200A73746129
:1031E00072740A00800000200000594000004E4028
:1031F0000A6C616E673A25662D2D2D6C61743A2537
:10320000660A696E20746869732074696D653A2571
:10321000643A25643A25640A000000000A67707366
:10322000206E6F207369676E616C200A696E20746E
:103230006869732074696D653A25643A25643A2596
:10324000640A000010B504460120FDF7CBFDC8223A
:103250000E490F48FEF766FC7D20C000FDF7FFFD1C
:103260000CA10020FEF7FEFD08490020FEF7FAFD44
:103270000AA10020FEF7F6FD0448FCF790FF024685
:1032800002492046FFF708FE10BD00002C06002072
:10329000040800200A72323A000000000A00000010
:1032A00010B50A0005D10246693200E0521C002A1E
:1032B00002D010782028F9D00021104600F074FACE
:1032C00010BD10B50021FFF7EBFF10BD10B50022B7
:1032D000002905D10146693100E0491C002902D0CE
:1032E00008782028F9D008782D2801D0002007E0A0
:1032F0000120491C04E00A2462439A18491C303A10
:10330000002904D00B781C46303C092CF3D9002846
:1033100001D0504210BD104610BD000070B50546EA
:1033200004466035E87D00280DD0297A002909D0AF
:103330002646803601294BD002296ED003296DD054
:1033400004296CD00EE120466930062286A104468D
:10335000FCF72CFF002833D0062285A12046FCF77D
:1033600025FF00282CD0062283A12046FCF71EFF53
:10337000002827D0062282A12046FCF717FF00284C
:1033800020D0062280A12046FCF710FF00281BD089
:1033900006227FA12046FCF709FF002814D0062250
:1033A0007DA12046FCF702FF00280FD006227CA159
:1033B0002046FCF7FBFE002808D000202872D1E050
:1033C0000120FBE70220F9E70320F7E70420F5E7F7
:1033D0000300FEF7A6FF0CC7071E2531354165C760
:1033E0009FC747C7687A0A223038A97A50433038D5
:1033F0000818B076E87A297B3038504330380818FE
:10340000F076687BA97B3038504330380818307725
:10341000A8E02046FFF755FF4CE02EE04FE05EE0CD
:10342000687A532801D073281BD103CE0122D2071A
:103430005140083E30603FE02046FFF742FF64E025
:10344000687A572801D077280BD10122F168D2077A
:10345000B0685140B0605AE000212046FFF736FFC7
:1034600070767FE000212046FFF71AFF9022942318
:1034700012591B59FCF7AAFE50E0022810D00F2861
:1034800048D0102812D011283BD0C01E0B2869D874
:1034900000212046FFF71AFFE97D9634085561E0C8
:1034A00000212046FFF712FF30765BE00021204626
:1034B000FFF7F6FE802210518034616052E002284E
:1034C00002D003284ED105E000212046FFF7FEFE82
:1034D000707047E000212046FFF7F8FE0DE0801EE7
:1034E0000300FEF71EFF09063F3F3F3F0E17203740
:1034F0003F00687A412802D00020307032E001207D
:10350000FBE700212046FFF7CBFE882210518034D4
:10351000E16027E000212046FFF7C2FE9022105113
:10352000803461611EE0687A0A223038A97A5043FB
:10353000303808187070E87A297B303850433038BA
:103540000818B070687BA97B3038504330380818B1
:10355000F07007E000212046FFF7A2FE98221051EC
:103560008034E161012070BD24475047474100008D
:1035700024474E474741000024475047534100002D
:1035800024474E47534100002447504753560000FC
:1035900024474E4753560000244750524D430000E5
:1035A00024474E524D430000F8B500247D250E46B9
:1035B0000746ED00C82219491948FEF7B3FA284614
:1035C000FDF74DFC17A10020FEF74CFC134900202D
:1035D000FEF748FC15A10020FEF744FC39460F48D1
:1035E000FFF7C6FB002801D00120F8BDFFF74CFB18
:1035F00000200A4A01461154401C6428FBDB304677
:10360000FCF7CDFD82B20A4B31460548FEF7D0FAF1
:10361000641C0A2CCEDB0020F8BD00002C06002024
:10362000040800200A72323A000000000A0000007C
:103630008813000010B504460A484068FDF70FFCE7
:103640000022094910468854521C642AFBDB20469C
:10365000FCF7A5FD82B2054B21460548FEF7A8FA06
:1036600010BD0000800000202C0600208813000000
:103670000408002070B506460020FDF7B3FB2E4875
:10368000FFF7D8FF2C492DA0FFF78EFF2A4CDE3C18
:1036900000283CD02BA0FFF7CDFF2AA12CA0FFF7DC
:1036A00083FF002832D02BA10020FEF7DBFB204651
:1036B0001830FCF774FD294D82B221462B46183193
:1036C0002748FEF775FA3046FCF769FD024625A14A
:1036D0002648FEF7FBFD2548FCF761FD82B22B462C
:1036E00022491F48FEF764FA3046FCF758FD82B2C3
:1036F0002B4631461A48FEF75BFA2B46022221463A
:103700001748FEF755FA6068FDF7A9FB70BD18A0D1
:10371000FFF790FF18A0FFF78DFF1BA0FFF78AFFB0
:10372000606881004018FDF79AFB1BA0FFF782FF3D
:10373000FFF70CFC70BD00005E010020434F4E4EB1
:103740004543540041542B43495053454E440A00CD
:103750003E0000000A7965733A00000088130000FB
:103760000408002025640D0A0D0A0000C805002089
:1037700041542646300D0A0041542B434950434CD6
:103780004F53450D0A00000041542B434741545408
:103790003D300D0A0000000041542B434741545472
:1037A0003D310D0A0000000000B50A4683B000213B
:1037B0000091019101466846FCF755FF0199009878
:1037C00003B000BD0000000000000000010203047F
:1037D000060708090000000001020304DDDDDDDD4D
:1037E000DCBBBBDDDDDDDDDDDDDDDDDD9888888892
:1037F0008888888877777777778888888555555639
:10380000666666666666666666688888833333328F
:1038100022222222222222222228888D5465726DA1
:10382000696E616C0000000048380008000000204C
:10383000B40100008E0D0008FC380008B40100201F
:10384000C40A00005C23000841600B53454747450C
:1038500052205254545A0204131C381408B4011252
:103860002002260439301205032B2010321A0312CD
:10387000E8038851504F5354202F6765742E7068A9
:103880007020485454502F312E310D0A486F7374F4
:103890003A2068772E736D61727462656D696E652A
:1038A0002E636F6D0D0A436F6E74656E742D5479BF
:1038B00070653A6170706C69636174696F6E2F6ACC
:1038C000736F6E3B2010084C656E6774683A4B6CE2
:1038D0006F20015C08141041542B4349505354414C
:1038E00052543D22544350222C22BB19150619383C
:0C38F00030220D0A1204620853127A0004
:04000005080000B13E
:00000001FF
